{
    "_format": "hh-sol-artifact-1",
    "contractName": "Transactions",
    "sourceName": "contracts/Transactions.sol",
    "abi": [
        {
            "inputs": [
                {
                    "internalType": "address payable",
                    "name": "_receiver",
                    "type": "address"
                },
                {
                    "internalType": "uint256",
                    "name": "amount",
                    "type": "uint256"
                }
            ],
            "name": "addToBlock",
            "outputs": [],
            "stateMutability": "nonpayable",
            "type": "function"
        },
        {
            "inputs": [],
            "name": "getAllTransactions",
            "outputs": [
                {
                    "components": [
                        {
                            "internalType": "address",
                            "name": "sender",
                            "type": "address"
                        },
                        {
                            "internalType": "address",
                            "name": "receiver",
                            "type": "address"
                        },
                        {
                            "internalType": "uint256",
                            "name": "amount",
                            "type": "uint256"
                        }
                    ],
                    "internalType": "struct Transactions.TransferStruct[]",
                    "name": "",
                    "type": "tuple[]"
                }
            ],
            "stateMutability": "view",
            "type": "function"
        },
        {
            "inputs": [],
            "name": "getTransactionCount",
            "outputs": [
                {
                    "internalType": "uint256",
                    "name": "",
                    "type": "uint256"
                }
            ],
            "stateMutability": "view",
            "type": "function"
        }
    ],
    "bytecode": "0x608060405234801561001057600080fd5b506105dd806100206000396000f3fe608060405234801561001057600080fd5b50600436106100415760003560e01c806327506f531461004657806328259bed146100645780632e7700f014610080575b600080fd5b61004e61009e565b60405161005b9190610430565b60405180910390f35b61007e6004803603810190610079919061030f565b6101b3565b005b6100886102dc565b6040516100959190610452565b60405180910390f35b60606001805480602002602001604051908101604052809291908181526020016000905b828210156101aa57838290600052602060002090600302016040518060600160405290816000820160009054906101000a900473ffffffffffffffffffffffffffffffffffffffff1673ffffffffffffffffffffffffffffffffffffffff1673ffffffffffffffffffffffffffffffffffffffff1681526020016001820160009054906101000a900473ffffffffffffffffffffffffffffffffffffffff1673ffffffffffffffffffffffffffffffffffffffff1673ffffffffffffffffffffffffffffffffffffffff168152602001600282015481525050815260200190600101906100c2565b50505050905090565b60016000808282546101c591906104a6565b92505081905550600160405180606001604052803373ffffffffffffffffffffffffffffffffffffffff1681526020018473ffffffffffffffffffffffffffffffffffffffff16815260200183815250908060018154018082558091505060019003906000526020600020906003020160009091909190915060008201518160000160006101000a81548173ffffffffffffffffffffffffffffffffffffffff021916908373ffffffffffffffffffffffffffffffffffffffff16021790555060208201518160010160006101000a81548173ffffffffffffffffffffffffffffffffffffffff021916908373ffffffffffffffffffffffffffffffffffffffff1602179055506040820151816002015550505050565b60008054905090565b6000813590506102f481610579565b92915050565b60008135905061030981610590565b92915050565b6000806040838503121561032257600080fd5b6000610330858286016102e5565b9250506020610341858286016102fa565b9150509250929050565b600061035783836103d0565b60608301905092915050565b61036c816104fc565b82525050565b600061037d8261047d565b6103878185610495565b93506103928361046d565b8060005b838110156103c35781516103aa888261034b565b97506103b583610488565b925050600181019050610396565b5085935050505092915050565b6060820160008201516103e66000850182610363565b5060208201516103f96020850182610363565b50604082015161040c6040850182610412565b50505050565b61041b81610540565b82525050565b61042a81610540565b82525050565b6000602082019050818103600083015261044a8184610372565b905092915050565b60006020820190506104676000830184610421565b92915050565b6000819050602082019050919050565b600081519050919050565b6000602082019050919050565b600082825260208201905092915050565b60006104b182610540565b91506104bc83610540565b9250827fffffffffffffffffffffffffffffffffffffffffffffffffffffffffffffffff038211156104f1576104f061054a565b5b828201905092915050565b600061050782610520565b9050919050565b600061051982610520565b9050919050565b600073ffffffffffffffffffffffffffffffffffffffff82169050919050565b6000819050919050565b7f4e487b7100000000000000000000000000000000000000000000000000000000600052601160045260246000fd5b6105828161050e565b811461058d57600080fd5b50565b61059981610540565b81146105a457600080fd5b5056fea264697066735822122011085d1168c256ecdc72687d4cee7f26c2ebf058dc37e3c0edfb4a9b25f0b97e64736f6c63430008000033",
    "linkReferences": {},
    "deployedLinkReferences": {}
}